{
  "abi": [
    {
      "type": "constructor",
      "inputs": [],
      "stateMutability": "nonpayable"
    },
    {
      "type": "function",
      "name": "AUD_USD_ID",
      "inputs": [],
      "outputs": [
        {
          "name": "",
          "type": "bytes32",
          "internalType": "bytes32"
        }
      ],
      "stateMutability": "view"
    },
    {
      "type": "function",
      "name": "ETH_USD_ID",
      "inputs": [],
      "outputs": [
        {
          "name": "",
          "type": "bytes32",
          "internalType": "bytes32"
        }
      ],
      "stateMutability": "view"
    },
    {
      "type": "function",
      "name": "EUR_USD_ID",
      "inputs": [],
      "outputs": [
        {
          "name": "",
          "type": "bytes32",
          "internalType": "bytes32"
        }
      ],
      "stateMutability": "view"
    },
    {
      "type": "function",
      "name": "GBP_USD_ID",
      "inputs": [],
      "outputs": [
        {
          "name": "",
          "type": "bytes32",
          "internalType": "bytes32"
        }
      ],
      "stateMutability": "view"
    },
    {
      "type": "function",
      "name": "NZD_USD_ID",
      "inputs": [],
      "outputs": [
        {
          "name": "",
          "type": "bytes32",
          "internalType": "bytes32"
        }
      ],
      "stateMutability": "view"
    },
    {
      "type": "function",
      "name": "PythContractAddress",
      "inputs": [],
      "outputs": [
        {
          "name": "",
          "type": "address",
          "internalType": "address"
        }
      ],
      "stateMutability": "view"
    },
    {
      "type": "function",
      "name": "USD_BRL_ID",
      "inputs": [],
      "outputs": [
        {
          "name": "",
          "type": "bytes32",
          "internalType": "bytes32"
        }
      ],
      "stateMutability": "view"
    },
    {
      "type": "function",
      "name": "USD_CAD_ID",
      "inputs": [],
      "outputs": [
        {
          "name": "",
          "type": "bytes32",
          "internalType": "bytes32"
        }
      ],
      "stateMutability": "view"
    },
    {
      "type": "function",
      "name": "USD_CHF_ID",
      "inputs": [],
      "outputs": [
        {
          "name": "",
          "type": "bytes32",
          "internalType": "bytes32"
        }
      ],
      "stateMutability": "view"
    },
    {
      "type": "function",
      "name": "USD_CLP_ID",
      "inputs": [],
      "outputs": [
        {
          "name": "",
          "type": "bytes32",
          "internalType": "bytes32"
        }
      ],
      "stateMutability": "view"
    },
    {
      "type": "function",
      "name": "USD_CNH_ID",
      "inputs": [],
      "outputs": [
        {
          "name": "",
          "type": "bytes32",
          "internalType": "bytes32"
        }
      ],
      "stateMutability": "view"
    },
    {
      "type": "function",
      "name": "USD_COP_ID",
      "inputs": [],
      "outputs": [
        {
          "name": "",
          "type": "bytes32",
          "internalType": "bytes32"
        }
      ],
      "stateMutability": "view"
    },
    {
      "type": "function",
      "name": "USD_HKD_ID",
      "inputs": [],
      "outputs": [
        {
          "name": "",
          "type": "bytes32",
          "internalType": "bytes32"
        }
      ],
      "stateMutability": "view"
    },
    {
      "type": "function",
      "name": "USD_IDR_ID",
      "inputs": [],
      "outputs": [
        {
          "name": "",
          "type": "bytes32",
          "internalType": "bytes32"
        }
      ],
      "stateMutability": "view"
    },
    {
      "type": "function",
      "name": "USD_INR_ID",
      "inputs": [],
      "outputs": [
        {
          "name": "",
          "type": "bytes32",
          "internalType": "bytes32"
        }
      ],
      "stateMutability": "view"
    },
    {
      "type": "function",
      "name": "USD_JPY_ID",
      "inputs": [],
      "outputs": [
        {
          "name": "",
          "type": "bytes32",
          "internalType": "bytes32"
        }
      ],
      "stateMutability": "view"
    },
    {
      "type": "function",
      "name": "USD_KRW_ID",
      "inputs": [],
      "outputs": [
        {
          "name": "",
          "type": "bytes32",
          "internalType": "bytes32"
        }
      ],
      "stateMutability": "view"
    },
    {
      "type": "function",
      "name": "USD_MXN_ID",
      "inputs": [],
      "outputs": [
        {
          "name": "",
          "type": "bytes32",
          "internalType": "bytes32"
        }
      ],
      "stateMutability": "view"
    },
    {
      "type": "function",
      "name": "USD_NOK_ID",
      "inputs": [],
      "outputs": [
        {
          "name": "",
          "type": "bytes32",
          "internalType": "bytes32"
        }
      ],
      "stateMutability": "view"
    },
    {
      "type": "function",
      "name": "USD_PEN_ID",
      "inputs": [],
      "outputs": [
        {
          "name": "",
          "type": "bytes32",
          "internalType": "bytes32"
        }
      ],
      "stateMutability": "view"
    },
    {
      "type": "function",
      "name": "USD_PHP_ID",
      "inputs": [],
      "outputs": [
        {
          "name": "",
          "type": "bytes32",
          "internalType": "bytes32"
        }
      ],
      "stateMutability": "view"
    },
    {
      "type": "function",
      "name": "USD_SEK_ID",
      "inputs": [],
      "outputs": [
        {
          "name": "",
          "type": "bytes32",
          "internalType": "bytes32"
        }
      ],
      "stateMutability": "view"
    },
    {
      "type": "function",
      "name": "USD_SGD_ID",
      "inputs": [],
      "outputs": [
        {
          "name": "",
          "type": "bytes32",
          "internalType": "bytes32"
        }
      ],
      "stateMutability": "view"
    },
    {
      "type": "function",
      "name": "USD_TRY_ID",
      "inputs": [],
      "outputs": [
        {
          "name": "",
          "type": "bytes32",
          "internalType": "bytes32"
        }
      ],
      "stateMutability": "view"
    },
    {
      "type": "function",
      "name": "USD_TWD_ID",
      "inputs": [],
      "outputs": [
        {
          "name": "",
          "type": "bytes32",
          "internalType": "bytes32"
        }
      ],
      "stateMutability": "view"
    },
    {
      "type": "function",
      "name": "USD_ZAR_ID",
      "inputs": [],
      "outputs": [
        {
          "name": "",
          "type": "bytes32",
          "internalType": "bytes32"
        }
      ],
      "stateMutability": "view"
    },
    {
      "type": "function",
      "name": "addUser",
      "inputs": [
        {
          "name": "_name",
          "type": "string",
          "internalType": "string"
        }
      ],
      "outputs": [],
      "stateMutability": "payable"
    },
    {
      "type": "function",
      "name": "exampleMethod",
      "inputs": [
        {
          "name": "priceUpdate",
          "type": "bytes[]",
          "internalType": "bytes[]"
        }
      ],
      "outputs": [],
      "stateMutability": "payable"
    },
    {
      "type": "error",
      "name": "InvalidName",
      "inputs": []
    },
    {
      "type": "error",
      "name": "NotEnoughAmount",
      "inputs": []
    },
    {
      "type": "error",
      "name": "TransactionUnsuccessful",
      "inputs": []
    }
  ],
  "bytecode": {
    "object": "0x6080604052348015600e575f5ffd5b5073a2aa501b19aff244d90cc15a4cf739d2725b57295f5f6101000a81548173ffffffffffffffffffffffffffffffffffffffff021916908373ffffffffffffffffffffffffffffffffffffffff1602179055503360015f6101000a81548173ffffffffffffffffffffffffffffffffffffffff021916908373ffffffffffffffffffffffffffffffffffffffff160217905550611797806100af5f395ff3fe6080604052600436106101b6575f3560e01c80635a47da75116100eb578063bb34989f11610089578063e0c297c311610063578063e0c297c31461059c578063e4755cc2146105b8578063eba2ceaa146105e2578063fb0ac4081461060c576101b6565b8063bb34989f1461051e578063c00f246a14610548578063c4781fea14610572576101b6565b80639159c407116100c55780639159c407146104765780639504ccdc146104a057806396a3f613146104ca5780639d5735ab146104f4576101b6565b80635a47da75146103f857806363d8e2581461042257806375b4272a1461044c576101b6565b806322cf960411610158578063339940f211610132578063339940f21461035057806345e0d64d1461037a5780634e9c1205146103a457806356ebf619146103ce576101b6565b806322cf9604146102d2578063295ef893146102fc5780632ef3b4ad14610326576101b6565b806318b8275a1161019457806318b8275a146102385780631aadf323146102545780631b63efec1461027e5780631f1d3d4f146102a8576101b6565b80630b985194146101ba57806315476d19146101e4578063155812851461020e575b5f5ffd5b3480156101c5575f5ffd5b506101ce610636565b6040516101db9190610dba565b60405180910390f35b3480156101ef575f5ffd5b506101f861065c565b6040516102059190610dba565b60405180910390f35b348015610219575f5ffd5b50610222610682565b60405161022f9190610dba565b60405180910390f35b610252600480360381019061024d9190610f20565b6106a8565b005b34801561025f575f5ffd5b50610268610854565b6040516102759190610dba565b60405180910390f35b348015610289575f5ffd5b5061029261087a565b60405161029f9190610dba565b60405180910390f35b3480156102b3575f5ffd5b506102bc6108a0565b6040516102c99190610dba565b60405180910390f35b3480156102dd575f5ffd5b506102e66108c6565b6040516102f39190610dba565b60405180910390f35b348015610307575f5ffd5b506103106108ec565b60405161031d9190610dba565b60405180910390f35b348015610331575f5ffd5b5061033a610912565b6040516103479190610dba565b60405180910390f35b34801561035b575f5ffd5b50610364610938565b6040516103719190610dba565b60405180910390f35b348015610385575f5ffd5b5061038e61095e565b60405161039b9190610dba565b60405180910390f35b3480156103af575f5ffd5b506103b8610984565b6040516103c59190610dba565b60405180910390f35b3480156103d9575f5ffd5b506103e26109aa565b6040516103ef9190610dba565b60405180910390f35b348015610403575f5ffd5b5061040c6109d0565b6040516104199190610dba565b60405180910390f35b34801561042d575f5ffd5b506104366109f6565b6040516104439190610dba565b60405180910390f35b348015610457575f5ffd5b50610460610a1c565b60405161046d9190610dba565b60405180910390f35b348015610481575f5ffd5b5061048a610a42565b6040516104979190610dba565b60405180910390f35b3480156104ab575f5ffd5b506104b4610a68565b6040516104c19190610dba565b60405180910390f35b3480156104d5575f5ffd5b506104de610a8e565b6040516104eb9190610dba565b60405180910390f35b3480156104ff575f5ffd5b50610508610ab4565b6040516105159190610dba565b60405180910390f35b348015610529575f5ffd5b50610532610ada565b60405161053f9190610dba565b60405180910390f35b348015610553575f5ffd5b5061055c610b00565b6040516105699190610dba565b60405180910390f35b34801561057d575f5ffd5b50610586610b26565b6040516105939190610fa6565b60405180910390f35b6105b660048036038101906105b1919061101c565b610b3e565b005b3480156105c3575f5ffd5b506105cc610d30565b6040516105d99190610dba565b60405180910390f35b3480156105ed575f5ffd5b506105f6610d56565b6040516106039190610dba565b60405180910390f35b348015610617575f5ffd5b50610620610d7c565b60405161062d9190610dba565b60405180910390f35b7fff61491a931112ddf1bd8147cd1b641375f79f5825126d665480874634fd0ace5f1b81565b7f0b1e3297e69f162877b577b0d6a47a0d63b2392bc8499e6540da4187a63e28f85f1b81565b7f396a969a9c1480fa15ed50bc59149e2c0075a72fe8f458ed941ddec48bdb49185f1b81565b66b1a2bc2ec500003410156106e9576040517fe008b5f900000000000000000000000000000000000000000000000000000000815260040160405180910390fd5b336003826040516106fa91906110b9565b90815260200160405180910390205f6101000a81548173ffffffffffffffffffffffffffffffffffffffff021916908373ffffffffffffffffffffffffffffffffffffffff1602179055508060025f3373ffffffffffffffffffffffffffffffffffffffff1673ffffffffffffffffffffffffffffffffffffffff1681526020019081526020015f20908161078f91906112d5565b505f60015f9054906101000a900473ffffffffffffffffffffffffffffffffffffffff1673ffffffffffffffffffffffffffffffffffffffff16346040516107d6906113d1565b5f6040518083038185875af1925050503d805f8114610810576040519150601f19603f3d011682016040523d82523d5f602084013e610815565b606091505b5050905080610850576040517f73c4e8d400000000000000000000000000000000000000000000000000000000815260040160405180910390fd5b5050565b7f489f02f2f13584026d63fd397c80ed3b414a2820c4d43da0306fc007fcd5a8e05f1b81565b7f92eea8ba1b00078cdc2ef6f64f091f262e8c7d0576ee4677572f314ebfafa4c75f1b81565b7feef52e09c878ad41f6a81803e3640fe04dceea727de894edd4ea117e2e332e665f1b81565b7f0ac0f9a2886fc2dd708bc66cc2cea359052ce89d324f45d95fadbc6c4fcf18095f1b81565b7f67a6f93030420c1c9e3fe37c1ab6b77966af82f995944a9fefce357a22854a805f1b81565b7fcaffb53eda8972cf729e59166e64f893960db66fa89ff5cd4702caf2ef4edf8d5f1b81565b7f3112b03a41c910ed446852aacf67118cb1bec67b2cd0b9a214c58cc0eaa2ecca5f1b81565b7f84c2dde9633d93d1bcad84e7dc41c9d56578b7ec52fabedc1f335d673df0a7c15f1b81565b7f2bda7f268b52bfbc3f2e124c31445247647350db313caadc6771e6299e0a68c95f1b81565b7f8ccb376aa871517e807358d4e3cf0bc7fe4950474dbe6c9ffc21ef64e43fc6765f1b81565b7fa995d00bb36a63cef7fd2c287dc105fc8f3d93779f062f09551b0af3e81ec30b5f1b81565b7f032a2eba1c2635bf973e95fb62b2c0705c1be2603b9572cc8d5edeaf8744e0585f1b81565b7fd2db4dbf1aea74e0f666b0e8f73b9580d407f5e5cf931940b06dc633d7a959065f1b81565b7f6693afcd49878bbd622e46bd805e7177932cf6ab0b1c91b135d71151b92074335f1b81565b7f19d75fde7fee50fe67753fdc825e583594eb2f51ae84e114a5246c4ab23aff4c5f1b81565b7f389d889017db82bf42141f23b61b8de938a4e2d156e36312175bebf797f493f15f1b81565b7fe539120487c29b4defdf9a53d337316ea022a2688978a468f9efd847201be7e35f1b81565b7fe13b1c1ffb32f34e1be9545583f01ef385fde7f42ee66049d30570dc866b77ca5f1b81565b7fd407a4b25cae3f9ec063af35c1d7feb9aa55be71d3f2a01b6de719dbcc3e84c75f1b81565b73a2aa501b19aff244d90cc15a4cf739d2725b572981565b5f5f5f9054906101000a900473ffffffffffffffffffffffffffffffffffffffff1673ffffffffffffffffffffffffffffffffffffffff1663d47eed4584846040518363ffffffff1660e01b8152600401610b9a92919061153d565b602060405180830381865afa158015610bb5573d5f5f3e3d5ffd5b505050506040513d601f19601f82011682018060405250810190610bd99190611589565b90505f5f9054906101000a900473ffffffffffffffffffffffffffffffffffffffff1673ffffffffffffffffffffffffffffffffffffffff1663ef9e5e288285856040518463ffffffff1660e01b8152600401610c3792919061153d565b5f604051808303818588803b158015610c4e575f5ffd5b505af1158015610c60573d5f5f3e3d5ffd5b50505050505f7fff61491a931112ddf1bd8147cd1b641375f79f5825126d665480874634fd0ace5f1b90505f5f5f9054906101000a900473ffffffffffffffffffffffffffffffffffffffff1673ffffffffffffffffffffffffffffffffffffffff1663a4ae35e083603c6040518363ffffffff1660e01b8152600401610ce89291906115ed565b608060405180830381865afa158015610d03573d5f5f3e3d5ffd5b505050506040513d601f19601f82011682018060405250810190610d279190611736565b90505050505050565b7fef2c98c804ba503c6a707e38be4dfbb16683775f195b091252bf24693042fd525f1b81565b7f5a90fd584136ff7969fc54c6642430e3c50af8ff234ed0e697555ea7b192446a5f1b81565b7f235ddea9f40e9af5814dbcc83a418b98e3ee8df1e34e1ae4d45cf5de596023a35f1b81565b5f819050919050565b610db481610da2565b82525050565b5f602082019050610dcd5f830184610dab565b92915050565b5f604051905090565b5f5ffd5b5f5ffd5b5f5ffd5b5f5ffd5b5f601f19601f8301169050919050565b7f4e487b71000000000000000000000000000000000000000000000000000000005f52604160045260245ffd5b610e3282610dec565b810181811067ffffffffffffffff82111715610e5157610e50610dfc565b5b80604052505050565b5f610e63610dd3565b9050610e6f8282610e29565b919050565b5f67ffffffffffffffff821115610e8e57610e8d610dfc565b5b610e9782610dec565b9050602081019050919050565b828183375f83830152505050565b5f610ec4610ebf84610e74565b610e5a565b905082815260208101848484011115610ee057610edf610de8565b5b610eeb848285610ea4565b509392505050565b5f82601f830112610f0757610f06610de4565b5b8135610f17848260208601610eb2565b91505092915050565b5f60208284031215610f3557610f34610ddc565b5b5f82013567ffffffffffffffff811115610f5257610f51610de0565b5b610f5e84828501610ef3565b91505092915050565b5f73ffffffffffffffffffffffffffffffffffffffff82169050919050565b5f610f9082610f67565b9050919050565b610fa081610f86565b82525050565b5f602082019050610fb95f830184610f97565b92915050565b5f5ffd5b5f5ffd5b5f5f83601f840112610fdc57610fdb610de4565b5b8235905067ffffffffffffffff811115610ff957610ff8610fbf565b5b60208301915083602082028301111561101557611014610fc3565b5b9250929050565b5f5f6020838503121561103257611031610ddc565b5b5f83013567ffffffffffffffff81111561104f5761104e610de0565b5b61105b85828601610fc7565b92509250509250929050565b5f81519050919050565b5f81905092915050565b8281835e5f83830152505050565b5f61109382611067565b61109d8185611071565b93506110ad81856020860161107b565b80840191505092915050565b5f6110c48284611089565b915081905092915050565b7f4e487b71000000000000000000000000000000000000000000000000000000005f52602260045260245ffd5b5f600282049050600182168061111357607f821691505b602082108103611126576111256110cf565b5b50919050565b5f819050815f5260205f209050919050565b5f6020601f8301049050919050565b5f82821b905092915050565b5f600883026111887fffffffffffffffffffffffffffffffffffffffffffffffffffffffffffffffff8261114d565b611192868361114d565b95508019841693508086168417925050509392505050565b5f819050919050565b5f819050919050565b5f6111d66111d16111cc846111aa565b6111b3565b6111aa565b9050919050565b5f819050919050565b6111ef836111bc565b6112036111fb826111dd565b848454611159565b825550505050565b5f5f905090565b61121a61120b565b6112258184846111e6565b505050565b5b818110156112485761123d5f82611212565b60018101905061122b565b5050565b601f82111561128d5761125e8161112c565b6112678461113e565b81016020851015611276578190505b61128a6112828561113e565b83018261122a565b50505b505050565b5f82821c905092915050565b5f6112ad5f1984600802611292565b1980831691505092915050565b5f6112c5838361129e565b9150826002028217905092915050565b6112de82611067565b67ffffffffffffffff8111156112f7576112f6610dfc565b5b61130182546110fc565b61130c82828561124c565b5f60209050601f83116001811461133d575f841561132b578287015190505b61133585826112ba565b86555061139c565b601f19841661134b8661112c565b5f5b828110156113725784890151825560018201915060208501945060208101905061134d565b8683101561138f578489015161138b601f89168261129e565b8355505b6001600288020188555050505b505050505050565b5f81905092915050565b50565b5f6113bc5f836113a4565b91506113c7826113ae565b5f82019050919050565b5f6113db826113b1565b9150819050919050565b5f82825260208201905092915050565b5f819050919050565b5f82825260208201905092915050565b5f61141983856113fe565b9350611426838584610ea4565b61142f83610dec565b840190509392505050565b5f61144684848461140e565b90509392505050565b5f5ffd5b5f5ffd5b5f5ffd5b5f5f8335600160200384360303811261147757611476611457565b5b83810192508235915060208301925067ffffffffffffffff82111561149f5761149e61144f565b5b6001820236038313156114b5576114b4611453565b5b509250929050565b5f602082019050919050565b5f6114d483856113e5565b9350836020840285016114e6846113f5565b805f5b8781101561152b578484038952611500828461145b565b61150b86828461143a565b9550611516846114bd565b935060208b019a5050506001810190506114e9565b50829750879450505050509392505050565b5f6020820190508181035f8301526115568184866114c9565b90509392505050565b611568816111aa565b8114611572575f5ffd5b50565b5f815190506115838161155f565b92915050565b5f6020828403121561159e5761159d610ddc565b5b5f6115ab84828501611575565b91505092915050565b5f819050919050565b5f6115d76115d26115cd846115b4565b6111b3565b6111aa565b9050919050565b6115e7816115bd565b82525050565b5f6040820190506116005f830185610dab565b61160d60208301846115de565b9392505050565b5f5ffd5b5f8160070b9050919050565b61162d81611618565b8114611637575f5ffd5b50565b5f8151905061164881611624565b92915050565b5f67ffffffffffffffff82169050919050565b61166a8161164e565b8114611674575f5ffd5b50565b5f8151905061168581611661565b92915050565b5f8160030b9050919050565b6116a08161168b565b81146116aa575f5ffd5b50565b5f815190506116bb81611697565b92915050565b5f608082840312156116d6576116d5611614565b5b6116e06080610e5a565b90505f6116ef8482850161163a565b5f83015250602061170284828501611677565b6020830152506040611716848285016116ad565b604083015250606061172a84828501611575565b60608301525092915050565b5f6080828403121561174b5761174a610ddc565b5b5f611758848285016116c1565b9150509291505056fea26469706673582212200135db8d654ec87ba328773605ca1b2e0b3bf4ff85574b786c67cad47fb9b00c64736f6c634300081e0033",
    "linkReferences": {}
  },
  "methodIdentifiers": {
    "AUD_USD_ID()": "295ef893",
    "ETH_USD_ID()": "0b985194",
    "EUR_USD_ID()": "5a47da75",
    "GBP_USD_ID()": "45e0d64d",
    "NZD_USD_ID()": "1b63efec",
    "PythContractAddress()": "c4781fea",
    "USD_BRL_ID()": "75b4272a",
    "USD_CAD_ID()": "339940f2",
    "USD_CHF_ID()": "15476d19",
    "USD_CLP_ID()": "c00f246a",
    "USD_CNH_ID()": "1f1d3d4f",
    "USD_COP_ID()": "2ef3b4ad",
    "USD_HKD_ID()": "9504ccdc",
    "USD_IDR_ID()": "9159c407",
    "USD_INR_ID()": "22cf9604",
    "USD_JPY_ID()": "e4755cc2",
    "USD_KRW_ID()": "9d5735ab",
    "USD_MXN_ID()": "bb34989f",
    "USD_NOK_ID()": "fb0ac408",
    "USD_PEN_ID()": "eba2ceaa",
    "USD_PHP_ID()": "4e9c1205",
    "USD_SEK_ID()": "56ebf619",
    "USD_SGD_ID()": "15581285",
    "USD_TRY_ID()": "63d8e258",
    "USD_TWD_ID()": "1aadf323",
    "USD_ZAR_ID()": "96a3f613",
    "addUser(string)": "18b8275a",
    "exampleMethod(bytes[])": "e0c297c3"
  },
  "id": 24
}